{
  "contractName": "Ballot",
  "abi": [
    {
      "inputs": [
        {
          "internalType": "string[]",
          "name": "candidateNames",
          "type": "string[]"
        }
      ],
      "stateMutability": "nonpayable",
      "type": "constructor"
    },
    {
      "inputs": [
        {
          "internalType": "uint256",
          "name": "",
          "type": "uint256"
        }
      ],
      "name": "candidates",
      "outputs": [
        {
          "internalType": "string",
          "name": "name",
          "type": "string"
        },
        {
          "internalType": "uint256",
          "name": "voteCount",
          "type": "uint256"
        }
      ],
      "stateMutability": "view",
      "type": "function",
      "constant": true
    },
    {
      "inputs": [],
      "name": "chairperson",
      "outputs": [
        {
          "internalType": "address",
          "name": "",
          "type": "address"
        }
      ],
      "stateMutability": "view",
      "type": "function",
      "constant": true
    },
    {
      "inputs": [
        {
          "internalType": "address",
          "name": "",
          "type": "address"
        }
      ],
      "name": "voters",
      "outputs": [
        {
          "internalType": "uint256",
          "name": "voteRightCount",
          "type": "uint256"
        },
        {
          "internalType": "bool",
          "name": "voted",
          "type": "bool"
        },
        {
          "internalType": "address",
          "name": "delegate",
          "type": "address"
        },
        {
          "internalType": "uint256",
          "name": "vote",
          "type": "uint256"
        }
      ],
      "stateMutability": "view",
      "type": "function",
      "constant": true
    },
    {
      "inputs": [
        {
          "internalType": "address",
          "name": "voter",
          "type": "address"
        }
      ],
      "name": "giveRightToVote",
      "outputs": [],
      "stateMutability": "nonpayable",
      "type": "function"
    },
    {
      "inputs": [
        {
          "internalType": "address",
          "name": "to",
          "type": "address"
        }
      ],
      "name": "delegate",
      "outputs": [],
      "stateMutability": "nonpayable",
      "type": "function"
    },
    {
      "inputs": [
        {
          "internalType": "uint256",
          "name": "candidate",
          "type": "uint256"
        }
      ],
      "name": "vote",
      "outputs": [],
      "stateMutability": "nonpayable",
      "type": "function"
    },
    {
      "inputs": [],
      "name": "winningCandidate",
      "outputs": [
        {
          "internalType": "uint256",
          "name": "winningCandidate_",
          "type": "uint256"
        }
      ],
      "stateMutability": "view",
      "type": "function",
      "constant": true
    },
    {
      "inputs": [],
      "name": "winnerName",
      "outputs": [
        {
          "internalType": "string",
          "name": "winnerName_",
          "type": "string"
        }
      ],
      "stateMutability": "view",
      "type": "function",
      "constant": true
    }
  ],
  "bytecode": "0x60806040523480156200001157600080fd5b5060405162001864380380620018648339818101604052810190620000379190620004dc565b336000806101000a81548173ffffffffffffffffffffffffffffffffffffffff021916908373ffffffffffffffffffffffffffffffffffffffff16021790555060018060008060009054906101000a900473ffffffffffffffffffffffffffffffffffffffff1673ffffffffffffffffffffffffffffffffffffffff1673ffffffffffffffffffffffffffffffffffffffff1681526020019081526020016000206000018190555060005b81518110156200018b57600260405180604001604052808484815181106200010f576200010e6200052d565b5b602002602001015181526020016000815250908060018154018082558091505060019003906000526020600020906002020160009091909190915060008201518160000190805190602001906200016892919062000193565b506020820151816001015550508080620001829062000595565b915050620000e2565b505062000648565b828054620001a19062000612565b90600052602060002090601f016020900481019282620001c5576000855562000211565b82601f10620001e057805160ff191683800117855562000211565b8280016001018555821562000211579182015b8281111562000210578251825591602001919060010190620001f3565b5b50905062000220919062000224565b5090565b5b808211156200023f57600081600090555060010162000225565b5090565b6000604051905090565b600080fd5b600080fd5b600080fd5b6000601f19601f8301169050919050565b7f4e487b7100000000000000000000000000000000000000000000000000000000600052604160045260246000fd5b620002a7826200025c565b810181811067ffffffffffffffff82111715620002c957620002c86200026d565b5b80604052505050565b6000620002de62000243565b9050620002ec82826200029c565b919050565b600067ffffffffffffffff8211156200030f576200030e6200026d565b5b602082029050602081019050919050565b600080fd5b600080fd5b600067ffffffffffffffff8211156200034857620003476200026d565b5b62000353826200025c565b9050602081019050919050565b60005b838110156200038057808201518184015260208101905062000363565b8381111562000390576000848401525b50505050565b6000620003ad620003a7846200032a565b620002d2565b905082815260208101848484011115620003cc57620003cb62000325565b5b620003d984828562000360565b509392505050565b600082601f830112620003f957620003f862000257565b5b81516200040b84826020860162000396565b91505092915050565b60006200042b6200042584620002f1565b620002d2565b9050808382526020820190506020840283018581111562000451576200045062000320565b5b835b818110156200049f57805167ffffffffffffffff8111156200047a576200047962000257565b5b808601620004898982620003e1565b8552602085019450505060208101905062000453565b5050509392505050565b600082601f830112620004c157620004c062000257565b5b8151620004d384826020860162000414565b91505092915050565b600060208284031215620004f557620004f46200024d565b5b600082015167ffffffffffffffff81111562000516576200051562000252565b5b6200052484828501620004a9565b91505092915050565b7f4e487b7100000000000000000000000000000000000000000000000000000000600052603260045260246000fd5b7f4e487b7100000000000000000000000000000000000000000000000000000000600052601160045260246000fd5b6000819050919050565b6000620005a2826200058b565b91507fffffffffffffffffffffffffffffffffffffffffffffffffffffffffffffffff821415620005d857620005d76200055c565b5b600182019050919050565b7f4e487b7100000000000000000000000000000000000000000000000000000000600052602260045260246000fd5b600060028204905060018216806200062b57607f821691505b60208210811415620006425762000641620005e3565b5b50919050565b61120c80620006586000396000f3fe608060405234801561001057600080fd5b50600436106100885760003560e01c80639e7b8d611161005b5780639e7b8d6114610114578063a3ec138d14610130578063d28178d714610163578063e2ba53f01461018157610088565b80630121b93f1461008d5780632e4176cf146100a95780633477ee2e146100c75780635c19a95c146100f8575b600080fd5b6100a760048036038101906100a29190610b07565b61019f565b005b6100b16102e6565b6040516100be9190610b75565b60405180910390f35b6100e160048036038101906100dc9190610b07565b61030a565b6040516100ef929190610c38565b60405180910390f35b610112600480360381019061010d9190610c94565b6103c6565b005b61012e60048036038101906101299190610c94565b610774565b005b61014a60048036038101906101459190610c94565b61092b565b60405161015a9493929190610cdc565b60405180910390f35b61016b610988565b6040516101789190610d21565b60405180910390f35b610189610a10565b6040516101969190610d3c565b60405180910390f35b6000600160003373ffffffffffffffffffffffffffffffffffffffff1673ffffffffffffffffffffffffffffffffffffffff168152602001908152602001600020905060008160000154141561022a576040517f08c379a000000000000000000000000000000000000000000000000000000000815260040161022190610daa565b60405180910390fd5b8060010160009054906101000a900460ff161561027c576040517f08c379a000000000000000000000000000000000000000000000000000000000815260040161027390610e16565b60405180910390fd5b60018160010160006101000a81548160ff0219169083151502179055508181600201819055508060000154600283815481106102bb576102ba610e36565b5b906000526020600020906002020160010160008282546102db9190610e94565b925050819055505050565b60008054906101000a900473ffffffffffffffffffffffffffffffffffffffff1681565b6002818154811061031a57600080fd5b906000526020600020906002020160009150905080600001805461033d90610f19565b80601f016020809104026020016040519081016040528092919081815260200182805461036990610f19565b80156103b65780601f1061038b576101008083540402835291602001916103b6565b820191906000526020600020905b81548152906001019060200180831161039957829003601f168201915b5050505050908060010154905082565b6000600160003373ffffffffffffffffffffffffffffffffffffffff1673ffffffffffffffffffffffffffffffffffffffff16815260200190815260200160002090508060010160009054906101000a900460ff161561045b576040517f08c379a000000000000000000000000000000000000000000000000000000000815260040161045290610f97565b60405180910390fd5b3373ffffffffffffffffffffffffffffffffffffffff168273ffffffffffffffffffffffffffffffffffffffff1614156104ca576040517f08c379a00000000000000000000000000000000000000000000000000000000081526004016104c190611003565b60405180910390fd5b5b600073ffffffffffffffffffffffffffffffffffffffff16600160008473ffffffffffffffffffffffffffffffffffffffff1673ffffffffffffffffffffffffffffffffffffffff16815260200190815260200160002060010160019054906101000a900473ffffffffffffffffffffffffffffffffffffffff1673ffffffffffffffffffffffffffffffffffffffff161461063a57600160008373ffffffffffffffffffffffffffffffffffffffff1673ffffffffffffffffffffffffffffffffffffffff16815260200190815260200160002060010160019054906101000a900473ffffffffffffffffffffffffffffffffffffffff1691503373ffffffffffffffffffffffffffffffffffffffff168273ffffffffffffffffffffffffffffffffffffffff161415610635576040517f08c379a000000000000000000000000000000000000000000000000000000000815260040161062c9061106f565b60405180910390fd5b6104cb565b6000600160008473ffffffffffffffffffffffffffffffffffffffff1673ffffffffffffffffffffffffffffffffffffffff168152602001908152602001600020905060018160000154101561068f57600080fd5b60018260010160006101000a81548160ff021916908315150217905550828260010160016101000a81548173ffffffffffffffffffffffffffffffffffffffff021916908373ffffffffffffffffffffffffffffffffffffffff1602179055508060010160009054906101000a900460ff161561074f578160000154600282600201548154811061072357610722610e36565b5b906000526020600020906002020160010160008282546107439190610e94565b9250508190555061076f565b81600001548160000160008282546107679190610e94565b925050819055505b505050565b60008054906101000a900473ffffffffffffffffffffffffffffffffffffffff1673ffffffffffffffffffffffffffffffffffffffff163373ffffffffffffffffffffffffffffffffffffffff1614610802576040517f08c379a00000000000000000000000000000000000000000000000000000000081526004016107f990611101565b60405180910390fd5b600160008273ffffffffffffffffffffffffffffffffffffffff1673ffffffffffffffffffffffffffffffffffffffff16815260200190815260200160002060010160009054906101000a900460ff1615610892576040517f08c379a00000000000000000000000000000000000000000000000000000000081526004016108899061116d565b60405180910390fd5b6000600160008373ffffffffffffffffffffffffffffffffffffffff1673ffffffffffffffffffffffffffffffffffffffff16815260200190815260200160002060000154146108e157600080fd5b60018060008373ffffffffffffffffffffffffffffffffffffffff1673ffffffffffffffffffffffffffffffffffffffff1681526020019081526020016000206000018190555050565b60016020528060005260406000206000915090508060000154908060010160009054906101000a900460ff16908060010160019054906101000a900473ffffffffffffffffffffffffffffffffffffffff16908060020154905084565b6000806000905060005b600280549050811015610a0b5781600282815481106109b4576109b3610e36565b5b90600052602060002090600202016001015411156109f857600281815481106109e0576109df610e36565b5b90600052602060002090600202016001015491508092505b8080610a039061118d565b915050610992565b505090565b60606002610a1c610988565b81548110610a2d57610a2c610e36565b5b90600052602060002090600202016000018054610a4990610f19565b80601f0160208091040260200160405190810160405280929190818152602001828054610a7590610f19565b8015610ac25780601f10610a9757610100808354040283529160200191610ac2565b820191906000526020600020905b815481529060010190602001808311610aa557829003601f168201915b5050505050905090565b600080fd5b6000819050919050565b610ae481610ad1565b8114610aef57600080fd5b50565b600081359050610b0181610adb565b92915050565b600060208284031215610b1d57610b1c610acc565b5b6000610b2b84828501610af2565b91505092915050565b600073ffffffffffffffffffffffffffffffffffffffff82169050919050565b6000610b5f82610b34565b9050919050565b610b6f81610b54565b82525050565b6000602082019050610b8a6000830184610b66565b92915050565b600081519050919050565b600082825260208201905092915050565b60005b83811015610bca578082015181840152602081019050610baf565b83811115610bd9576000848401525b50505050565b6000601f19601f8301169050919050565b6000610bfb82610b90565b610c058185610b9b565b9350610c15818560208601610bac565b610c1e81610bdf565b840191505092915050565b610c3281610ad1565b82525050565b60006040820190508181036000830152610c528185610bf0565b9050610c616020830184610c29565b9392505050565b610c7181610b54565b8114610c7c57600080fd5b50565b600081359050610c8e81610c68565b92915050565b600060208284031215610caa57610ca9610acc565b5b6000610cb884828501610c7f565b91505092915050565b60008115159050919050565b610cd681610cc1565b82525050565b6000608082019050610cf16000830187610c29565b610cfe6020830186610ccd565b610d0b6040830185610b66565b610d186060830184610c29565b95945050505050565b6000602082019050610d366000830184610c29565b92915050565b60006020820190508181036000830152610d568184610bf0565b905092915050565b7f486173206e6f20726967687420746f20766f74652e0000000000000000000000600082015250565b6000610d94601583610b9b565b9150610d9f82610d5e565b602082019050919050565b60006020820190508181036000830152610dc381610d87565b9050919050565b7f416c726561647920766f74656400000000000000000000000000000000000000600082015250565b6000610e00600d83610b9b565b9150610e0b82610dca565b602082019050919050565b60006020820190508181036000830152610e2f81610df3565b9050919050565b7f4e487b7100000000000000000000000000000000000000000000000000000000600052603260045260246000fd5b7f4e487b7100000000000000000000000000000000000000000000000000000000600052601160045260246000fd5b6000610e9f82610ad1565b9150610eaa83610ad1565b9250827fffffffffffffffffffffffffffffffffffffffffffffffffffffffffffffffff03821115610edf57610ede610e65565b5b828201905092915050565b7f4e487b7100000000000000000000000000000000000000000000000000000000600052602260045260246000fd5b60006002820490506001821680610f3157607f821691505b60208210811415610f4557610f44610eea565b5b50919050565b7f596f7520616c726561647920766f7465642e0000000000000000000000000000600082015250565b6000610f81601283610b9b565b9150610f8c82610f4b565b602082019050919050565b60006020820190508181036000830152610fb081610f74565b9050919050565b7f53656c662d64656c69676174696f6e20697320646973616c6c6f7765642e0000600082015250565b6000610fed601e83610b9b565b9150610ff882610fb7565b602082019050919050565b6000602082019050818103600083015261101c81610fe0565b9050919050565b7f466f756e64206c6f6f7020696e2064656c65676174696f6e2e00000000000000600082015250565b6000611059601983610b9b565b915061106482611023565b602082019050919050565b600060208201905081810360008301526110888161104c565b9050919050565b7f6f6e6c79206368616972706572736f6e2063616e20676976652072696768747360008201527f20746f20766f74652e0000000000000000000000000000000000000000000000602082015250565b60006110eb602983610b9b565b91506110f68261108f565b604082019050919050565b6000602082019050818103600083015261111a816110de565b9050919050565b7f54686520766f74657220616c726561647920766f7465642e0000000000000000600082015250565b6000611157601883610b9b565b915061116282611121565b602082019050919050565b600060208201905081810360008301526111868161114a565b9050919050565b600061119882610ad1565b91507fffffffffffffffffffffffffffffffffffffffffffffffffffffffffffffffff8214156111cb576111ca610e65565b5b60018201905091905056fea2646970667358221220823edbf31d3b8b3ca9acbf149a7a9b6211e162af22d864e983317b57abc8e27d64736f6c634300080c0033",
  "immutableReferences": {},
  "source": "// SPDX-License-Identifier: GPL-3.0\r\npragma solidity >=0.7.0 <0.9.0;\r\n\r\n/// @title Voting with delegation\r\ncontract Ballot {\r\n    struct Voter {\r\n        // voteRightCount is accumulated by delegation\r\n        uint256 voteRightCount;\r\n        // if true, that person already voted\r\n        bool voted;\r\n        // person delegated to\r\n        address delegate;\r\n        // index of the voted proposal\r\n        uint256 vote;\r\n    }\r\n    struct Candidate {\r\n        // short name (up to 32 bytes)\r\n        string name;\r\n        // number of accumulated votes\r\n        uint256 voteCount;\r\n    }\r\n    address public chairperson;\r\n    mapping(address => Voter) public voters;\r\n    Candidate[] public candidates;\r\n\r\n    constructor(string[] memory candidateNames) {\r\n        chairperson = msg.sender;\r\n        voters[chairperson].voteRightCount = 1;\r\n        for (uint256 i = 0; i < candidateNames.length; i++) {\r\n            candidates.push(Candidate({name: candidateNames[i], voteCount: 0}));\r\n        }\r\n    }\r\n\r\n    function giveRightToVote(address voter) external {\r\n        require(\r\n            msg.sender == chairperson,\r\n            \"only chairperson can give rights to vote.\"\r\n        );\r\n        require(!voters[voter].voted, \"The voter already voted.\");\r\n        require(voters[voter].voteRightCount == 0);\r\n        voters[voter].voteRightCount = 1;\r\n    }\r\n\r\n    function delegate(address to) external {\r\n        Voter storage sender = voters[msg.sender];\r\n        require(!sender.voted, \"You already voted.\");\r\n        require(to != msg.sender, \"Self-deligation is disallowed.\");\r\n        while (voters[to].delegate != address(0)) {\r\n            to = voters[to].delegate;\r\n            require(to != msg.sender, \"Found loop in delegation.\");\r\n        }\r\n        Voter storage delegate_ = voters[to];\r\n        require(delegate_.voteRightCount >= 1);\r\n        sender.voted = true;\r\n        sender.delegate = to;\r\n        if (delegate_.voted)\r\n            candidates[delegate_.vote].voteCount += sender.voteRightCount;\r\n        else delegate_.voteRightCount += sender.voteRightCount;\r\n    }\r\n\r\n    function vote(uint256 candidate) external {\r\n        Voter storage sender = voters[msg.sender];\r\n        require(sender.voteRightCount != 0, \"Has no right to vote.\");\r\n        require(!sender.voted, \"Already voted\");\r\n        sender.voted = true;\r\n        sender.vote = candidate;\r\n        candidates[candidate].voteCount += sender.voteRightCount;\r\n    }\r\n\r\n    function winningCandidate()\r\n        public\r\n        view\r\n        returns (uint256 winningCandidate_)\r\n    {\r\n        uint256 winningVoteCount = 0;\r\n        for (uint256 p = 0; p < candidates.length; p++) {\r\n            if (candidates[p].voteCount > winningVoteCount) {\r\n                winningVoteCount = candidates[p].voteCount;\r\n                winningCandidate_ = p;\r\n            }\r\n        }\r\n    }\r\n\r\n    function winnerName() external view returns (string memory winnerName_) {\r\n        winnerName_ = candidates[winningCandidate()].name;\r\n    }\r\n}\r\n",
  "sourcePath": "E:\\PROGRAMMING\\WORKSPACE\\PROJECTS\\voting-blockchain\\contracts\\Ballot.sol",
  "compiler": {
    "name": "solc",
    "version": "0.8.12+commit.f00d7308.Emscripten.clang"
  },
  "schemaVersion": "3.4.6",
  "updatedAt": "2022-04-01T13:46:13.394Z",
  "networkType": "ethereum",
  "devdoc": {
    "kind": "dev",
    "methods": {},
    "title": "Voting with delegation",
    "version": 1
  },
  "userdoc": {
    "kind": "user",
    "methods": {},
    "version": 1
  }
}